{
  "_format": "hh-sol-artifact-1",
  "contractName": "LibraryContract",
  "sourceName": "contracts/LibraryContract.sol",
  "abi": [
    {
      "inputs": [
        {
          "internalType": "string",
          "name": "_title",
          "type": "string"
        },
        {
          "internalType": "string",
          "name": "_author",
          "type": "string"
        }
      ],
      "name": "addBook",
      "outputs": [],
      "stateMutability": "nonpayable",
      "type": "function"
    },
    {
      "inputs": [],
      "name": "bookCount",
      "outputs": [
        {
          "internalType": "uint256",
          "name": "",
          "type": "uint256"
        }
      ],
      "stateMutability": "view",
      "type": "function"
    },
    {
      "inputs": [
        {
          "internalType": "uint256",
          "name": "",
          "type": "uint256"
        }
      ],
      "name": "books",
      "outputs": [
        {
          "internalType": "string",
          "name": "title",
          "type": "string"
        },
        {
          "internalType": "string",
          "name": "author",
          "type": "string"
        },
        {
          "internalType": "bool",
          "name": "available",
          "type": "bool"
        }
      ],
      "stateMutability": "view",
      "type": "function"
    },
    {
      "inputs": [
        {
          "internalType": "uint256",
          "name": "_bookId",
          "type": "uint256"
        }
      ],
      "name": "borrowBook",
      "outputs": [],
      "stateMutability": "nonpayable",
      "type": "function"
    },
    {
      "inputs": [
        {
          "internalType": "uint256",
          "name": "_bookId",
          "type": "uint256"
        }
      ],
      "name": "checkAvailability",
      "outputs": [
        {
          "internalType": "bool",
          "name": "",
          "type": "bool"
        }
      ],
      "stateMutability": "view",
      "type": "function"
    }
  ],
  "bytecode": "0x608060405234801561001057600080fd5b50610b0d806100206000396000f3fe608060405234801561001057600080fd5b50600436106100575760003560e01c8063687440461461005c578063753999ef1461008e5780637e490a9e146100be578063b905ad78146100da578063d8a7233e146100f8575b600080fd5b61007660048036038101906100719190610407565b610114565b604051610085939291906104df565b60405180910390f35b6100a860048036038101906100a39190610407565b61025b565b6040516100b59190610524565b60405180910390f35b6100d860048036038101906100d39190610407565b610287565b005b6100e261031a565b6040516100ef919061054e565b60405180910390f35b610112600480360381019061010d919061069e565b610320565b005b600060205280600052604060002060009150905080600001805461013790610745565b80601f016020809104026020016040519081016040528092919081815260200182805461016390610745565b80156101b05780601f10610185576101008083540402835291602001916101b0565b820191906000526020600020905b81548152906001019060200180831161019357829003601f168201915b5050505050908060010180546101c590610745565b80601f01602080910402602001604051908101604052809291908181526020018280546101f190610745565b801561023e5780601f106102135761010080835404028352916020019161023e565b820191906000526020600020905b81548152906001019060200180831161022157829003601f168201915b5050505050908060020160009054906101000a900460ff16905083565b600080600083815260200190815260200160002060020160009054906101000a900460ff169050919050565b60008082815260200190815260200160002060020160009054906101000a900460ff166102e9576040517f08c379a00000000000000000000000000000000000000000000000000000000081526004016102e0906107c2565b60405180910390fd5b600080600083815260200190815260200160002060020160006101000a81548160ff02191690831515021790555050565b60015481565b60405180606001604052808381526020018281526020016001151581525060008060015481526020019081526020016000206000820151816000019081610367919061098e565b50602082015181600101908161037d919061098e565b5060408201518160020160006101000a81548160ff021916908315150217905550905050600160008154809291906103b490610a8f565b91905055505050565b6000604051905090565b600080fd5b600080fd5b6000819050919050565b6103e4816103d1565b81146103ef57600080fd5b50565b600081359050610401816103db565b92915050565b60006020828403121561041d5761041c6103c7565b5b600061042b848285016103f2565b91505092915050565b600081519050919050565b600082825260208201905092915050565b60005b8381101561046e578082015181840152602081019050610453565b60008484015250505050565b6000601f19601f8301169050919050565b600061049682610434565b6104a0818561043f565b93506104b0818560208601610450565b6104b98161047a565b840191505092915050565b60008115159050919050565b6104d9816104c4565b82525050565b600060608201905081810360008301526104f9818661048b565b9050818103602083015261050d818561048b565b905061051c60408301846104d0565b949350505050565b600060208201905061053960008301846104d0565b92915050565b610548816103d1565b82525050565b6000602082019050610563600083018461053f565b92915050565b600080fd5b600080fd5b7f4e487b7100000000000000000000000000000000000000000000000000000000600052604160045260246000fd5b6105ab8261047a565b810181811067ffffffffffffffff821117156105ca576105c9610573565b5b80604052505050565b60006105dd6103bd565b90506105e982826105a2565b919050565b600067ffffffffffffffff82111561060957610608610573565b5b6106128261047a565b9050602081019050919050565b82818337600083830152505050565b600061064161063c846105ee565b6105d3565b90508281526020810184848401111561065d5761065c61056e565b5b61066884828561061f565b509392505050565b600082601f83011261068557610684610569565b5b813561069584826020860161062e565b91505092915050565b600080604083850312156106b5576106b46103c7565b5b600083013567ffffffffffffffff8111156106d3576106d26103cc565b5b6106df85828601610670565b925050602083013567ffffffffffffffff811115610700576106ff6103cc565b5b61070c85828601610670565b9150509250929050565b7f4e487b7100000000000000000000000000000000000000000000000000000000600052602260045260246000fd5b6000600282049050600182168061075d57607f821691505b6020821081036107705761076f610716565b5b50919050565b7f426f6f6b206e6f7420617661696c61626c650000000000000000000000000000600082015250565b60006107ac60128361043f565b91506107b782610776565b602082019050919050565b600060208201905081810360008301526107db8161079f565b9050919050565b60008190508160005260206000209050919050565b60006020601f8301049050919050565b600082821b905092915050565b6000600883026108447fffffffffffffffffffffffffffffffffffffffffffffffffffffffffffffffff82610807565b61084e8683610807565b95508019841693508086168417925050509392505050565b6000819050919050565b600061088b610886610881846103d1565b610866565b6103d1565b9050919050565b6000819050919050565b6108a583610870565b6108b96108b182610892565b848454610814565b825550505050565b600090565b6108ce6108c1565b6108d981848461089c565b505050565b5b818110156108fd576108f26000826108c6565b6001810190506108df565b5050565b601f82111561094257610913816107e2565b61091c846107f7565b8101602085101561092b578190505b61093f610937856107f7565b8301826108de565b50505b505050565b600082821c905092915050565b600061096560001984600802610947565b1980831691505092915050565b600061097e8383610954565b9150826002028217905092915050565b61099782610434565b67ffffffffffffffff8111156109b0576109af610573565b5b6109ba8254610745565b6109c5828285610901565b600060209050601f8311600181146109f857600084156109e6578287015190505b6109f08582610972565b865550610a58565b601f198416610a06866107e2565b60005b82811015610a2e57848901518255600182019150602085019450602081019050610a09565b86831015610a4b5784890151610a47601f891682610954565b8355505b6001600288020188555050505b505050505050565b7f4e487b7100000000000000000000000000000000000000000000000000000000600052601160045260246000fd5b6000610a9a826103d1565b91507fffffffffffffffffffffffffffffffffffffffffffffffffffffffffffffffff8203610acc57610acb610a60565b5b60018201905091905056fea2646970667358221220f41288757ba74974f8d33796047830e886216f3bcabc1028a80452b17749057064736f6c63430008110033",
  "linkReferences": {},
  "deployedLinkReferences": {}
}